:1000000012C02CC02BC02AC029C028C027C026C0BF
:1000100025C024C023C022C021C020C01FC01EC0D4
:100020001DC01CC01BC011241FBECFE5D4E0DEBF25
:10003000CDBF10E0A0E6B0E0E0E4F6E002C005903D
:100040000D92A03AB107D9F720E0A0EAB0E001C0D4
:100050001D92A13AB207E1F7C9D2F0C2D1CF87B35E
:100060008F7087BBC19AC09800C000C0C29A00C000
:1000700000C086B3807F00C000C0C29892E09A950D
:10008000F1F700C0C29A00C000C096B300C000C023
:10009000C29892E09A95F1F700C087FDE7CFC1982A
:1000A00087B3806F87BB0895282F22952F708F709C
:1000B000611102C0C09801C0C09A00C000C0C29ABD
:1000C00098B340E1249F900111249F70922B98BB1C
:1000D00092E09A95F1F700C0C29832E03A95F1F7B4
:1000E00000C0C29A28B340E1849FC00111242F7040
:1000F000282B28BB82E08A95F1F700C0C29892E0D5
:100100009A95F1F700C0ABCF0F931F93CF93DF9376
:10011000EC0188818823B1F0853271F48E010F5F84
:100120001F4F8981805361E0883020F085E2BCDF79
:1001300061E08981B9DF03C061E0B6DF8E01E801CB
:100140002196E7CFDF91CF911F910F910895EF9204
:10015000FF920F931F93CF93DF9300D000D01F9295
:10016000CDB7DEB79B01AE014F5F5F4F7A0145E02F
:10017000F70111924A95E9F7FE0136960AE010E080
:10018000009729F0B80133D28293CB01F9CF2F3FEA
:10019000FFEF3F0741F4F7018F010E191F0981910D
:1001A0008823D1F304C005E010E0021B130B0530D7
:1001B000110554F4F701E00FF11F808161E0805DCB
:1001C00073DF0F5F1F4FF3CF0F900F900F900F90C3
:1001D0000F90DF91CF911F910F91FF90EF900895B5
:1001E000843170F4623031F0633031F0613029F4E1
:1001F000806403C08C5E01C08C5A60E0806854CF7C
:1002000008950F931F93CF93DF931F92CDB7DEB75F
:10021000EFE5FAEE3197F1F700C0000097B3906F69
:1002200097BBBA9AB89AB99A98B39F7098BBC2987C
:10023000C198C09800C00000C29AC59AF2E0FA9531
:10024000F1F700C0C29892E09A95F1F700C0898357
:1002500006DF60E089818C6027DF60E088E224DFD0
:1002600060E080E421DF00E610E061E0F8018191C8
:100270008F011ADFF0E0003A1F07B9F760E080E075
:100280000F90DF91CF911F910F91AACFA59A8AE08D
:100290008A95F1F700C0A49A8AE08A95F1F700C028
:1002A000A5988AE08A95F1F700C0A4988AE08A951B
:1002B000F1F700C01092A0009C9905C08091A000A9
:1002C0008F5F8093A0009D9905C08091A0008F5FF3
:1002D0008093A0008AE08A95F1F700C08AE08A95B1
:1002E000F1F700C08AE08A95F1F700C08AE08A95AC
:1002F000F1F700C00895A498A598AC98AD98C6CF22
:10030000A49A8AE08A95F1F700C0A59A8AE08A95B6
:10031000F1F700C00895A4988AE08A95F1F700C02B
:10032000A5988AE08A95F1F700C0A49A8AE08A9598
:10033000F1F700C0A59A8AE08A95F1F700C0089508
:1003400098E087FD02C0A49A01C0A4982AE02A95EB
:10035000F1F700C0A5982AE02A95F1F700C0A59A08
:10036000880F915071F7A4988AE08A95F1F700C040
:10037000A5982AE02A95F1F700C083B3A59A829543
:1003800081700895282FA49898E080E0880FA598A0
:100390003AE03A95F1F700C09C998160A59A3AE05D
:1003A0003A95F1F700C0915089F7211102C0A49A43
:1003B00001C0A4989AE09A95F1F700C0A5983AE098
:1003C0003A95F1F700C0A59A9AE09A95F1F700C026
:1003D000A4980895CF93DF9300D01F92CDB7DEB7D6
:1003E0004B836A8389838CDF8981AADF6A81862FA8
:1003F000A7DF4B81842FA4DF0F900F900F90DF9128
:10040000CF9144CF47E069E180ED90E0E3DF40E049
:100410006AE180ED90E0DEDF48E16BE180ED90E0A5
:10042000D9DF40E06CE180ED90E0D4DF40E06DE1A9
:1004300080ED90E0CFDF40E06EE180ED90E0CADF3C
:1004400040E06FE180ED90E0C5DF40E060E280EDEC
:1004500090E0C0DF40E061E280ED90E0BBDF40E093
:1004600062E280ED90E0B6DF40E063E280ED90E094
:10047000B1DF40E064E280ED90E0ACDF40E065E2B7
:1004800080ED90E0A7DF40E066E280ED90E0A2DF43
:1004900040E067E280ED90E09DDF40E068E280EDC3
:1004A00090E098DF40E069E280ED90E093DF40E08B
:1004B0006AE280ED90E08EDF40E06BE280ED90E05C
:1004C00089DF40E06CE280ED90E084DF40E06DE2A7
:1004D00080ED90E07FDF40E06EE280ED90E07ADF3B
:1004E00040E06FE280ED90E075DF40E060E380ED9A
:1004F00090E070DF40E061E380ED90E06BDF40E092
:1005000062E380ED90E066DF40E063E380ED90E041
:1005100061DF40E064E380ED90E05CDF40E065E3B4
:1005200080ED90E057DF40E067E380ED90E052DF40
:1005300040E068E380ED90E04DDF40E063E680ED71
:1005400090E048DF40E064E680ED90E043DF40E08B
:1005500065E680ED90E03EDF40E066E680ED90E00D
:1005600039DF40E067E680ED90E034DF40E068E6A8
:1005700080ED90E02FDF40E069E680ED90E02ADF3B
:1005800040E06AE680ED90E025DF42E06BE680ED3A
:1005900090E020DF40E06CE680ED90E01BCFCF9351
:1005A000DF93EC01ADDE80EDCBDE85E7C9DE6EDEEC
:1005B000A7DE81EDC5DE81E0E5DE8883DF91CF91A6
:1005C00065CECF93DF93EC019BDE80EDB9DE81E455
:1005D000B7DE5CDE95DE81EDB3DE80E0D3DE8983BD
:1005E00081E0D0DE8A83DF91CF9150CEFFCF97FBA1
:1005F000072E16F4009406D077FD08D00BD007FC28
:1006000005D03EF4909581959F4F08957095619522
:100610007F4F0895AA1BBB1B51E107C0AA1FBB1F38
:10062000A617B70710F0A61BB70B881F991F5A957E
:10063000A9F780959095BC01CD010895F894FFCF5E
:100640000C12120C000000000C1204081E00000026
:100650000A15110A040000000305090B0B18180005
:100660001F0E0E04040404000101050515151500F4
:100670000E11111F1F1F1F000000000000000000CE
:00000001FF
