:1000000012C02CC02BC02AC029C028C027C026C0BF
:1000100025C024C023C022C021C020C01FC01EC0D4
:100020001DC01CC01BC011241FBECFE5D4E0DEBF25
:10003000CDBF10E0A0E6B0E0ECEBF6E002C005902A
:100040000D92A03AB107D9F720E0A0EAB0E001C0D4
:100050001D92A13AB207E1F7A4D22EC3D1CF87FDFA
:100060008195089581B3877881BB919A909800001B
:10007000929A000080B38695869586958295807FBA
:10008000000092980000929A000090B300009298AD
:10009000000087FDEDCF919881B3886781BB0895FB
:1000A000282F22952F708F70611102C0909801C087
:1000B000909A0000929A92B348E0249F90011124F4
:1000C0009778922B92BB000092980000929A22B3EC
:1000D00038E0839FC00111242778282B22BB000021
:1000E00092980000BFCF0F931F93CF93DF93EC0143
:1000F00088818823B1F0853271F48E010F5F1F4F24
:100100008981805361E0883020F085E2C9DF61E0B9
:100110008981C6DF03C061E0C3DF8E01E80121965B
:10012000E7CFDF91CF911F910F910895EF92FF924A
:100130000F931F93CF93DF9300D000D01F92CDB7C2
:10014000DEB79B01AE014F5F5F4F7A0145E0F701DB
:1001500011924A95E9F7FE0136960AE010E0009701
:1001600029F0B80144D28293CB01F9CF2F3FFFEFA2
:100170003F0741F4F7018F010E191F098191882370
:10018000D1F304C005E010E0021B130B053011058C
:1001900054F4F701E00FF11F808161E0805D80DFA2
:1001A0000F5F1F4FF3CF0F900F900F900F900F9096
:1001B000DF91CF911F910F91FF90EF9008958431BF
:1001C00070F4623031F0633031F0613029F48064D2
:1001D00003C08C5E01C08C5A60E0806861CF0895D6
:1001E0000F931F93CF93DF931F92CDB7DEB7EBE44E
:1001F000FDE13197F1F700C0000091B3986791BB22
:100200008A9A889A899A92B3977892BB9298919891
:1002100090980000929A949A000092980000898326
:1002200021DF60E089818C603BDF60E088E238DFBD
:1002300060E080E435DF00E610E061E0F8018191E4
:100240008F012EDFF0E0003A1F07B9F760E080E091
:100250000F90DF91CF911F910F91B1CFA59A00C060
:1002600000C0A49A00C000C0A59800C000C0A49817
:1002700000C000C01092A0009C9905C08091A00011
:100280008F5F8093A0009D9905C08091A0008F5F33
:100290008093A00000C000C000C000C000C000C02B
:1002A00000C000C00895A498A598AC98AD98D6CF8A
:1002B000A49A00C000C0A59A00C000C00895A498E8
:1002C00000C000C0A59800C000C0A49A00C000C033
:1002D000A59A00C000C0089598E087FD02C0A49AC6
:1002E00001C0A49800C000C0A59800C000C0A59A95
:1002F000880F915091F7A49800C000C0A59800C045
:1003000000C083B3A59A829581700895282FA49880
:1003100098E080E0880FA59800C000C09C9981609B
:10032000A59A00C000C09150A9F7211102C0A49A5B
:1003300001C0A49800C000C0A59800C000C0A59A44
:1003400000C000C0A4980895CF93DF9300D01F92FF
:10035000CDB7DEB74B836A838983AADF8981BCDF8F
:100360006A81862FB9DF4B81842FB6DF0F900F9003
:100370000F90DF91CF9172CF47E069E180ED90E07F
:10038000E3DF40E06AE180ED90E0DEDF48E16BE131
:1003900080ED90E0D9DF40E06CE180ED90E0D4DFCB
:1003A00040E06DE180ED90E0CFDF40E06EE180ED78
:1003B00090E0CADF40E06FE180ED90E0C5DF40E013
:1003C00060E280ED90E0C0DF40E061E280ED90E02F
:1003D000BBDF40E062E280ED90E0B6DF40E063E248
:1003E00080ED90E0B1DF40E064E280ED90E0ACDFD2
:1003F00040E065E280ED90E0A7DF40E066E280ED5E
:1004000090E0A2DF40E067E280ED90E09DDF40E019
:1004100068E280ED90E098DF40E069E280ED90E0F6
:1004200093DF40E06AE280ED90E08EDF40E06BE237
:1004300080ED90E089DF40E06CE280ED90E084DFC9
:1004400040E06DE280ED90E07FDF40E06EE280ED25
:1004500090E07ADF40E06FE280ED90E075DF40E011
:1004600060E380ED90E070DF40E061E380ED90E0DC
:100470006BDF40E062E380ED90E066DF40E063E345
:1004800080ED90E061DF40E064E380ED90E05CDFD0
:1004900040E065E380ED90E057DF40E067E380ED0A
:1004A00090E052DF40E068E380ED90E04DDF40E017
:1004B00063E680ED90E048DF40E064E680ED90E0A8
:1004C00043DF40E065E680ED90E03EDF40E066E639
:1004D00080ED90E039DF40E067E680ED90E034DFCA
:1004E00040E068E680ED90E02FDF40E069E680EDD7
:1004F00090E02ADF40E06AE680ED90E025DF42E010
:100500006BE680ED90E020DF40E06CE680ED90E06F
:100510001BCFCF93DF93EC01CBDE80EDDDDE85E7F3
:10052000DBDE9CDEC5DE81EDD7DE81E0EFDE888399
:10053000DF91CF9193CECF93DF93EC01B9DE80EDC5
:10054000CBDE81E4C9DE8ADEB3DE81EDC5DE80E08C
:10055000DDDE898381E0DADE8A83DF91CF917ECE92
:10056000CF93DF93EC016981772767FD7095762F34
:1005700066278A81992787FD909584589F4C680F3C
:10058000791F882777FD8095982F24E531E040E09A
:1005900050E040D02B833C834D835E83DF91CF912D
:1005A0000895CF93DF93CDB7DEB727970FB6F894B2
:1005B000DEBF0FBECDBF88E013DE60E081E070DDFE
:1005C00072DEDADECE010196A4DF60E080E0F7DDC6
:1005D000898163E070E090E0A9DD2FE986E891E091
:1005E000215080409040E1F700C00000EBCF97FB26
:1005F000072E16F4009406D077FD08D027D007FC0C
:1006000005D03EF4909581959F4F08957095619522
:100610007F4F0895052E97FB16F400940FD057FDD9
:1006200005D028D007FC02D046F408C0509540956C
:10063000309521953F4F4F4F5F4F0895909580958E
:10064000709561957F4F8F4F9F4F0895AA1BBB1BDD
:1006500051E107C0AA1FBB1FA617B70710F0A61BC2
:10066000B70B881F991F5A95A9F780959095BC01E3
:10067000CD010895A1E21A2EAA1BBB1BFD010DC0DE
:10068000AA1FBB1FEE1FFF1FA217B307E407F50742
:1006900020F0A21BB30BE40BF50B661F771F881F1E
:1006A000991F1A9469F760957095809590959B01B4
:0C06B000AC01BD01CF010895F894FFCF0C
:1006BC000C12120C000000000C1204081E000000AA
:1006CC000A15110A040000000305090B0B18180089
:1006DC001F0E0E0404040400010105051515150078
:1006EC000E11111F1F1F1F00000000000000000052
:00000001FF
