:1000000012C02CC02BC02AC029C028C027C026C0BF
:1000100025C024C023C022C021C020C01FC01EC0D4
:100020001DC01CC01BC011241FBECFE5D4E0DEBF25
:10003000CDBF10E0A0E6B0E0E4E5FAE002C0059034
:100040000D92A43AB107D9F720E0A4EAB0E001C0CC
:100050001D92A53AB207E1F746D3FAC4D1CFCF93A8
:10006000DF93EC01862F60E01C161D0634F4BDD032
:1000700080EA90E04ED0CE0108C0B7D082EA90E08E
:1000800048D0882799278C1B9D0BDF91CF9108952D
:1000900081B3877881BB919A90980000929A000072
:1000A00080B38695869586958295807F000092988C
:1000B0000000929A000090B300009298000087FD23
:1000C000EDCF919881B3886781BB0895282F229541
:1000D0002F708F70611102C0909801C0909A00003B
:1000E000929A92B348E0249F900111249778922B22
:1000F00092BB000092980000929A22B338E0839F4E
:10010000C00111242778282B22BB00009298000000
:10011000BFCF0F931F93CF93DF93EC018881882388
:10012000B1F0853271F48E010F5F1F4F89818053CA
:1001300061E0883020F085E2C9DF61E08981C6DFB7
:1001400003C061E0C3DF8E01E8012196E7CFDF91B4
:10015000CF911F910F910895EF92FF920F931F93EC
:10016000CF93DF9300D000D01F92CDB7DEB79B01B5
:10017000AE014F5F5F4F7A0145E0F70111924A955A
:10018000E9F7FE0136960AE010E0009729F0B80181
:10019000DDD28293CB01F9CF2F3FFFEF3F0741F430
:1001A000F7018F010E191F0981918823D1F304C033
:1001B00005E010E0021B130B0530110554F4F701A4
:1001C000E00FF11F808161E0805D80DF0F5F1F4FD6
:1001D000F3CF0F900F900F900F900F90DF91CF9172
:1001E0001F910F91FF90EF900895843170F4623069
:1001F00031F0633031F0613029F4806403C08C5EEB
:1002000001C08C5A60E0806861CF08950F931F93FE
:10021000CF93DF931F92CDB7DEB7EBE4FDE13197CB
:10022000F1F700C0000091B3986791BB8A9A889A51
:10023000899A92B3977892BB92989198909800007F
:10024000929A949A000092980000898321DF60E0DE
:1002500089818C603BDF60E088E238DF60E080E429
:1002600035DF00E610E061E0F80181918F012EDFBB
:10027000F0E0003A1F07B9F760E080E00F90DF91EF
:10028000CF911F910F91B1CFA59A00C000C0A49A41
:1002900000C000C0A59800C000C0A49800C000C065
:1002A0001092A4009C9905C08091A4008F5F809358
:1002B000A4009D9905C08091A4008F5F8093A40045
:1002C00000C000C000C000C000C000C000C000C02E
:1002D0000895A498A598AC98AD98D6CFA49A00C0DC
:1002E00000C0A59A00C000C00895A49800C000C036
:1002F000A59800C000C0A49A00C000C0A59A00C084
:1003000000C0089598E087FD02C0A49A01C0A49897
:1003100000C000C0A59800C000C0A59A880F9150E9
:1003200091F7A49800C000C0A59800C000C083B396
:10033000A59A829581700895282FA49898E080E06E
:10034000880FA59800C000C09C998160A59A00C044
:1003500000C09150A9F7211102C0A49A01C0A4982D
:1003600000C000C0A59800C000C0A59A00C000C091
:10037000A4980895CF93DF9300D01F92CDB7DEB736
:100380004B836A838983AADF8981BCDF6A81862FD8
:10039000B9DF4B81842FB6DF0F900F900F90DF9164
:1003A000CF9172CF47E069E180ED90E0E3DF40E07C
:1003B0006AE180ED90E0DEDF48E16BE180ED90E006
:1003C000D9DF40E06CE180ED90E0D4DF40E06DE10A
:1003D00080ED90E0CFDF40E06EE180ED90E0CADF9D
:1003E00040E06FE180ED90E0C5DF40E060E280ED4D
:1003F00090E0C0DF40E061E280ED90E0BBDF40E0F4
:1004000062E280ED90E0B6DF40E063E280ED90E0F4
:10041000B1DF40E064E280ED90E0ACDF40E065E217
:1004200080ED90E0A7DF40E066E280ED90E0A2DFA3
:1004300040E067E280ED90E09DDF40E068E280ED23
:1004400090E098DF40E069E280ED90E093DF40E0EB
:100450006AE280ED90E08EDF40E06BE280ED90E0BC
:1004600089DF40E06CE280ED90E084DF40E06DE207
:1004700080ED90E07FDF40E06EE280ED90E07ADF9B
:1004800040E06FE280ED90E075DF40E060E380EDFA
:1004900090E070DF40E061E380ED90E06BDF40E0F2
:1004A00062E380ED90E066DF40E063E380ED90E0A2
:1004B00061DF40E064E380ED90E05CDF40E065E315
:1004C00080ED90E057DF40E067E380ED90E052DFA1
:1004D00040E068E380ED90E04DDF40E063E680EDD2
:1004E00090E048DF40E064E680ED90E043DF40E0EC
:1004F00065E680ED90E03EDF40E066E680ED90E06E
:1005000039DF40E067E680ED90E034DF40E068E608
:1005100080ED90E02FDF40E069E680ED90E02ADF9B
:1005200040E06AE680ED90E025DF42E06BE680ED9A
:1005300090E020DF40E06CE680ED90E01BCFCF93B1
:10054000DF93EC01CBDE80EDDDDE85E7DBDE9CDEDC
:10055000C5DE81EDD7DE81E0EFDE8883DF91CF91CC
:1005600093CECF93DF93EC01B9DE80EDCBDE81E457
:10057000C9DE8ADEB3DE81EDC5DE80E0DDDE8983A3
:1005800081E0DADE8A83DF91CF917ECECF93DF9355
:10059000EC01A4DE80EDB6DE8BE3B4DE75DE9EDE1C
:1005A00081EDB0DE80E0C8DE8F8380E0C5DE888725
:1005B00080E0C2DE898780E0BFDE8A8780E0BCDE23
:1005C0008B8781E0B9DE8C875FDE8F8190E0982F8A
:1005D00088272885820F911DAA2797FDA095BA2FFD
:1005E0008D879E87AF87B88B898590E0982F882765
:1005F0002A85820F911DAA2797FDA095BA2F898B76
:100600009A8BAB8BBC8B4B8550E0542F44278C8549
:10061000480F511D662757FD6095762F4D8B5E8BD9
:100620006F8B788FDF91CF910895CF93DF93EC019B
:1006300055DE80ED67DE83E465DE26DE4FDE81ED8C
:1006400061DE80E079DE898F80E076DE8A8F80E06F
:1006500073DE8B8F80E070DE8C8F80E06DDE8D8F9F
:1006600081E06ADE8E8F10DE898D90E0982F8827DA
:100670002A8D820F911D98A38F8F8B8D90E0982FDC
:1006800088272C8D820F911D9AA389A38D8D90E0D0
:10069000982F88272E8D820F911D9CA38BA3DF910D
:1006A000CF910895CF93DF93EC015BDF698170E018
:1006B000762F66278A81680F711D882777FD8095C0
:1006C000982F3AD120E030E04AEA53E4CBD028EB2F
:1006D0003EE142E152E462D06B837C838D839E8352
:1006E000DF91CF910895CF93DF93CDB7DEB7A59774
:1006F0000FB6F894DEBF0FBECDBF88E087DD60E0A7
:1007000081E0E4DCE6DD4EDECE0101963FDF60E015
:1007100080E06BDD888563E070E090E01DDD60E0E7
:1007200084E063DD898563E070E090E015DD61E0E1
:1007300080E05BDD65E070E08E859F850DDD83E206
:1007400094EF0197F1F700C00000DECF97FB072E72
:1007500016F4009406D077FD08D00BD007FC05D026
:100760003EF4909581959F4F0895709561957F4FC8
:100770000895AA1BBB1B51E107C0AA1FBB1FA617E8
:10078000B70710F0A61BB70B881F991F5A95A9F73A
:1007900080959095BC01CD0108955058BB27AA279C
:1007A0000ED01CC10DD130F012D120F031F49F3F9A
:1007B00011F41EF402C10EF4E095E7FBF8C0E92F36
:1007C0001ED180F3BA17620773078407950718F0E4
:1007D00071F49EF536C10EF4E0950B2EBA2FA02DC4
:1007E0000B01B90190010C01CA01A0011124FF27DE
:1007F000591B99F0593F50F4503E68F11A16F040D9
:10080000A22F232F342F4427585FF3CF46953795D7
:100810002795A795F0405395C9F77EF41F16BA0B9C
:10082000620B730B840BBAF09150A1F0FF0FBB1F4A
:10083000661F771F881FC2F70EC0BA0F621F731F93
:10084000841F48F4879577956795B795F7959E3FF0
:1008500008F0B3CF9395880F08F09927EE0F97957E
:10086000879508950CD0BAC0B2D040F0A9D030F02E
:1008700021F45F3F19F09BC05111E4C09EC0BFD06E
:1008800098F39923C9F35523B1F3951B550BBB2757
:10089000AA2762177307840738F09F5F5F4F220F04
:1008A000331F441FAA1FA9F333D00E2E3AF0E0E8FD
:1008B00030D091505040E695001CCAF729D0FE2F49
:1008C00027D0660F771F881FBB1F261737074807DB
:1008D000AB07B0E809F0BB0B802DBF01FF27935891
:1008E0005F4F2AF09E3F510568F061C0ABC05F3F8B
:1008F000ECF3983EDCF3869577956795B795F79579
:100900009F5FC9F7880F911D9695879597F9089570
:10091000E1E0660F771F881FBB1F6217730784070C
:10092000BA0720F0621B730B840BBA0BEE1F88F71B
:10093000E0950895E89409C097FB3EF49095809562
:10094000709561957F4F8F4F9F4F9923A9F0F92F95
:1009500096E9BB279395F695879577956795B79513
:10096000F111F8CFFAF4BB0F11F460FF1BC06F5FF9
:100970007F4F8F4F9F4F16C0882311F096E911C00B
:10098000772321F09EE8872F762F05C0662371F02C
:1009900096E8862F70E060E02AF09A95660F771F40
:1009A000881FDAF7880F9695879597F9089597F934
:1009B0009F6780E870E060E008959FEF80EC089505
:1009C00000240A941616170618060906089500242E
:1009D0000A9412161306140605060895092E0394A8
:1009E000000C11F4882352F0BB0F40F4BF2B11F41C
:1009F00060FF04C06F5F7F4F8F4F9F4F089557FD7B
:100A00009058440F551F59F05F3F71F04795880F7C
:100A100097FB991F61F09F3F79F087950895121613
:100A200013061406551FF2CF4695F1DF08C01616BF
:100A300017061806991FF1CF869571056105089470
:100A40000895E894BB2766277727CB0197F9089587
:040A5000F894FFCF48
:100A54000C12120C000000000C1204081E0000000E
:100A64000A15110A040000000305090B0B181800ED
:100A74001F0E0E04040404000101050515151500DC
:100A84000E11111F1F1F1F000000000000000000B6
:040A94002B002D0006
:00000001FF
