:1000000012C02CC02BC02AC029C028C027C026C0BF
:1000100025C024C023C022C021C020C01FC01EC0D4
:100020001DC01CC01BC011241FBECFE5D4E0DEBF25
:10003000CDBF10E0A0E6B0E0E6E7F8E002C0059032
:100040000D92A03AB107D9F720E0A0EAB0E001C0D4
:100050001D92A13AB207E1F78ED20BC4D1CF81B382
:10006000877881BB919A90980000929A000080B3A3
:100070008695869586958295807F000092980000EF
:10008000929A000090B300009298000087FDEDCF97
:10009000919881B3886781BB0895282F22952F708E
:1000A0008F70611102C0909801C0909A0000929ADE
:1000B00092B348E0249F900111249778922B92BB31
:1000C000000092980000929A22B338E0839FC0010A
:1000D00011242778282B22BB000092980000BFCF64
:1000E0000F931F93CF93DF93EC0188818823B1F0A6
:1000F000853271F48E010F5F1F4F8981805361E05B
:10010000883020F085E2C9DF61E08981C6DF03C065
:1001100061E0C3DF8E01E8012196E7CFDF91CF9147
:100120001F910F910895EF92FF920F931F93CF931A
:10013000DF9300D000D01F92CDB7DEB79B01AE0198
:100140004F5F5F4F7A0145E0F70111924A95E9F759
:10015000FE0136960AE010E0009729F0B80152D26D
:100160008293CB01F9CF2F3FFFEF3F0741F4F70117
:100170008F010E191F0981918823D1F304C005E076
:1001800010E0021B130B0530110554F4F701E00FCA
:10019000F11F808161E0805D80DF0F5F1F4FF3CF33
:1001A0000F900F900F900F900F90DF91CF911F91B4
:1001B0000F91FF90EF900895843170F4623031F028
:1001C000633031F0613029F4806403C08C5E01C07B
:1001D0008C5A60E0806861CF08950F931F93CF938E
:1001E000DF931F92CDB7DEB7EBE4FDE13197F1F776
:1001F00000C0000091B3986791BB8A9A889A899A47
:1002000092B3977892BB9298919890980000929AA6
:10021000949A000092980000898321DF60E0898130
:100220008C603BDF60E088E238DF60E080E435DF4F
:1002300000E610E061E0F80181918F012EDFF0E02F
:10024000003A1F07B9F760E080E00F90DF91CF918F
:100250001F910F91B1CFA59A00C000C0A49A00C011
:1002600000C0A59800C000C0A49800C000C01092B3
:10027000A0009C9905C08091A0008F5F8093A00092
:100280009D9905C08091A0008F5F8093A00000C061
:1002900000C000C000C000C000C000C000C0089581
:1002A000A498A598AC98AD98D6CFA49A00C000C0E9
:1002B000A59A00C000C00895A49800C000C0A598E9
:1002C00000C000C0A49A00C000C0A59A00C000C031
:1002D000089598E087FD02C0A49A01C0A49800C0C8
:1002E00000C0A59800C000C0A59A880F915091F752
:1002F000A49800C000C0A59800C000C083B3A59A10
:10030000829581700895282FA49898E080E0880F46
:10031000A59800C000C09C998160A59A00C000C04B
:100320009150A9F7211102C0A49A01C0A49800C05D
:1003300000C0A59800C000C0A59A00C000C0A49845
:100340000895CF93C82FB1DF80EDC3DF8C2FC1DFBD
:10035000CF9181CFFF920F931F93CF93DF93062FFF
:10036000F0DFA3DF81EDB5DFF12CC0E0D0E010E0DD
:10037000015011098F2D90E0801791074CF480E017
:10038000C2DF90E0982F8827C80FD91FF394F2CFCF
:1003900081E0B9DFC80FD11D5EDFCE01DF91CF91C3
:1003A0001F910F91FF9008951F93CF93DF931F929A
:1003B000CDB7DEB7182F698378DF80ED8ADF812F14
:1003C00088DF6981862F85DF0F90DF91CF911F91A4
:1003D00042CF67E089E1E8DF60E08AE1E5DF68E1DC
:1003E0008BE1E2DF60E08CE1DFDF60E08DE1DCDF0C
:1003F00060E08EE1D9DF60E08FE1D6DF60E080E28F
:10040000D3DF60E081E2D0DF60E082E2CDDF60E058
:1004100083E2CADF60E084E2C7DF60E085E2C4DF38
:1004200060E086E2C1DF60E087E2BEDF60E088E294
:10043000BBDF60E089E2B8DF60E08AE2B5DF60E060
:100440008BE2B2DF60E08CE2AFDF60E08DE2ACDF38
:1004500060E08EE2A9DF60E08FE2A6DF60E080E38B
:10046000A3DF60E081E3A0DF60E082E39DDF60E086
:1004700083E39ADF60E084E397DF60E085E394DF65
:1004800060E087E391DF60E088E38EDF60E083E691
:100490008BDF60E084E688DF60E085E685DF60E092
:1004A00086E682DF60E087E67FDF60E088E67CDF6B
:1004B00060E089E679DF60E08AE676DF62E08BE67D
:1004C00073DF60E08CE670CFCF93DF93EC0161E0E7
:1004D00085E740DF8883DF91CF910895CF93DF9345
:1004E000EC0162E081E436DF9A838983DF91CF916A
:1004F0000895CF93DF93EC0162E08BE32BDF9887C5
:100500008F8362E08DE326DF9A87898762E08FE33D
:1005100021DF9C878B87DF91CF910895CF93DF9365
:10052000EC0162E083E416DF9E878D8762E085E45C
:1005300011DF988B8F8762E087E40CDF9A8B898BC1
:10054000DF91CF910895CF93DF93EC01C7DF8981CD
:100550009A8164E571E042D080E090E0FCD028EB25
:100560003EE142E152E462D06B837C838D839E83C3
:10057000DF91CF910895CF93DF93CDB7DEB7639727
:100580000FB6F894DEBF0FBECDBF88E026DE60E078
:1005900081E083DD85DE1DDFCE01019695DF60E021
:1005A00080E00ADE898163E070E090E0BCDDCE018E
:1005B0000196C9DF60E085E0FFDD6C817D818E8181
:1005C0009F8198D0DC01CB0162E070E0ACDD83E27A
:1005D00094EF0197F1F700C00000DECFAA1BBB1B10
:1005E00051E107C0AA1FBB1FA617B70710F0A61B33
:1005F000B70B881F991F5A95A9F780959095BC0154
:10060000CD01089597FB072E16F4009406D077FDD0
:1006100008D0E4DF07FC05D03EF4909581959F4F0C
:100620000895709561957F4F08955058BB27AA276C
:100630000ED0E5C0D6D030F0DBD020F031F49F3FB3
:1006400011F41EF4CBC00EF4E095E7FBC1C0E92F16
:10065000E7D080F3BA17620773078407950718F08D
:1006600071F49EF5FFC00EF4E0950B2EBA2FA02D6D
:100670000B01B90190010C01CA01A0011124FF274F
:10068000591B99F0593F50F4503E68F11A16F0404A
:10069000A22F232F342F4427585FF3CF4695379549
:1006A0002795A795F0405395C9F77EF41F16BA0B0E
:1006B000620B730B840BBAF09150A1F0FF0FBB1FBC
:1006C000661F771F881FC2F70EC0BA0F621F731F05
:1006D000841F48F4879577956795B795F7959E3F62
:1006E00008F0B3CF9395880F08F09927EE0F9795F0
:1006F0008795089504D06894B111B5C0089598D035
:1007000088F09F5790F0B92F9927B751A0F0D1F0FA
:10071000660F771F881F991F1AF0BA95C9F712C084
:10072000B13081F09FD0B1E008959CC0672F782F41
:100730008827B85F39F0B93FCCF3869577956795F0
:10074000B395D9F73EF490958095709561957F4F5C
:100750008F4F9F4F0895E89409C097FB3EF4909502
:100760008095709561957F4F8F4F9F4F9923A9F08A
:10077000F92F96E9BB279395F69587957795679519
:10078000B795F111F8CFFAF4BB0F11F460FF1BC05D
:100790006F5F7F4F8F4F9F4F16C0882311F096E9F0
:1007A00011C0772321F09EE8872F762F05C066239E
:1007B00071F096E8862F70E060E02AF09A95660F57
:1007C000771F881FDAF7880F9695879597F9089510
:1007D00097F99F6780E870E060E008959FEF80ECF4
:1007E000089500240A941616170618060906089597
:1007F00000240A9412161306140605060895092EFD
:100800000394000C11F4882352F0BB0F40F4BF2B6B
:1008100011F460FF04C06F5F7F4F8F4F9F4F0895AB
:1008200057FD9058440F551F59F05F3F71F04795A1
:10083000880F97FB991F61F09F3F79F08795089586
:10084000121613061406551FF2CF4695F1DF08C0A5
:10085000161617061806991FF1CF869571056105C2
:1008600008940895E894BB2766277727CB0197F96A
:060870000895F894FFCF8B
:100876000C12120C000000000C1204081E000000EE
:100886000A15110A040000000305090B0B181800CD
:100896001F0E0E04040404000101050515151500BC
:1008A6000E11111F1F1F1F00000000000000000096
:00000001FF
